:100000000C945D000C941F040C94F8030C94850070
:100010000C9485000C9485000C9485000C9485004C
:100020000C9485000C9485000C9485000C9485003C
:100030000C9485000C9485000C9485000C9485002C
:100040000C94AE030C9485000C947C030C94560322
:100050000C9485000C9485000C9485000C9485000C
:100060000C9485000C94850000000008000201003B
:100070000003040700000000000000000000000072
:10008000250028002B0000000000240027002A0083
:10009000040404040404040402020202020203032E
:1000A0000303030301020408102040800102040836
:1000B0001020010204081020CC0511241FBECFEF30
:1000C000D8E0DEBFCDBF11E0A0E0B1E0E0E5FCE0AC
:1000D00002C005900D92A036B107D9F722E0A0E644
:1000E000B1E001C01D92AA30B207E1F710E0CDE502
:1000F000D0E004C02197FE010E941B06CC35D10739
:10010000C9F70E9446040C9426060C94000090E067
:10011000FC01EC55FF4F2491FC01E057FF4F849107
:10012000882399F090E0880F991FFC01EA57FF4F50
:10013000A591B491FC01E458FF4F859194918FB73C
:10014000F894EC91E22BEC938FBF089580916B01B2
:1001500090916C01019690936C0180936B010895CE
:100160008091690190916A01019690936A01809350
:1001700069010895CF92DF92EF92FF920F931F9340
:10018000CF93DF936C017A018B01C0E0D0E0CE15F4
:10019000DF0589F0D8016D918D01D601ED91FC91BB
:1001A0000190F081E02DC6010995892B11F47E01A3
:1001B00002C02196ECCFC701DF91CF911F910F9123
:1001C000FF90EF90DF90CF900895089580E090E049
:1001D0000895FC01538D448D252F30E0842F90E04D
:1001E000821B930B541710F0CF9608950197089532
:1001F000FC01918D828D981761F0828DDF01A80F2F
:10020000B11D5D968C91928D9F5F9F73928F90E050
:1002100008958FEF9FEF0895FC01918D828D9817BF
:1002200031F0828DE80FF11D858D90E008958FEFFC
:100230009FEF0895FC01918D228D892F90E0805CC5
:100240009F4F821B91098F73992708958DE691E046
:100250000E941A0121E0892B09F420E0822F0895E1
:10026000FC01848DDF01A80FB11DA35ABF4F2C9153
:10027000848D90E001968F739927848FA689B78922
:100280002C93A089B1898C9180648C93938D848DFB
:10029000981306C00288F389E02D80818F7D8083CA
:1002A0000895EF92FF920F931F93CF93DF93EC018A
:1002B00081E0888F9B8D8C8D981305C0E889F98922
:1002C000808185FD24C0F62E0B8D10E00F5F1F4F3F
:1002D0000F731127E02E8C8DE8120CC00FB607FCAF
:1002E000FACFE889F989808185FFF5CFCE010E9498
:1002F0003001F1CF8B8DFE01E80FF11DE35AFF4F66
:10030000F0820B8FEA89FB898081806207C0EE89C9
:10031000FF896083E889F98980818064808381E036
:1003200090E0DF91CF911F910F91FF90EF90089592
:10033000CF93DF93EC01888D8823C9F0EA89FB898C
:10034000808185FD05C0A889B9898C9186FD0FC083
:100350000FB607FCF5CF808185FFF2CFA889B98958
:100360008C9185FFEDCFCE010E943001E7CFDF9168
:10037000CF91089580E090E0892B29F00E9426011A
:1003800081110C940000089590E0FC01E859FF4FA2
:100390003491FC01EC55FF4F2491FC01E057FF4FD5
:1003A000E491EE2309F43BC0332339F1333091F06B
:1003B00038F43130A9F0323001F584B58F7D12C0A8
:1003C000373091F03830A1F03430B9F480918000AA
:1003D0008F7D03C0809180008F77809380000DC057
:1003E00084B58F7784BD09C08091B0008F7703C03A
:1003F0008091B0008F7D8093B000F0E0EE0FFF1F82
:10040000E458FF4FA591B4918FB7F894EC91611126
:1004100003C020952E2301C02E2B2C938FBF08954F
:100420001F93CF93DF93182FEB010E948700209733
:1004300011F460E004C0CF3FD10539F461E0812FB1
:10044000DF91CF911F910C94C401E12FF0E0E859A6
:10045000FF4FE491E330F9F048F4E130B9F0E230D5
:10046000A1F584B5806284BDC8BD34C0E730E9F031
:10047000E83019F1E43049F5809180008062809382
:100480008000D0938B00C0938A0024C084B580681C
:1004900084BDC7BD1FC080918000806880938000AC
:1004A000D0938900C093880015C08091B000806807
:1004B0008093B000C093B3000DC08091B000806203
:1004C0008093B000C093B40005C0C038D1050CF0D3
:1004D000B5CFAFCFDF91CF911F9108953FB7F8947B
:1004E0008091650190916601A0916701B0916801CA
:1004F00026B5A89B05C02F3F19F00196A11DB11D7F
:100500003FBFBA2FA92F982F8827820F911DA11DB9
:10051000B11DBC01CD0142E0660F771F881F991FF6
:100520004A95D1F708958F929F92AF92BF92CF9242
:10053000DF92EF92FF920E946E024B015C0188EE07
:10054000C82E83E0D82EE12CF12C0E946E02DC0133
:10055000CB0188199909AA09BB09883E9340A105D6
:10056000B10558F021E0C21AD108E108F10888EE7F
:10057000880E83E0981EA11CB11CC114D104E104B3
:10058000F10419F7FF90EF90DF90CF90BF90AF90FC
:100590009F908F9008950895009769F0FC01019055
:1005A0000020E9F73197AF01481B590BBC018DE6DC
:1005B00091E00C94BA0080E090E00895CF93DF932F
:1005C0000E94CC02EC018AE191E00E94CC028C0FE7
:1005D0009D1FDF91CF9108958F929F92AF92BF920E
:1005E0000F931F93CF93DF93CDB7DEB7A1970FB6CD
:1005F000F894DEBF0FBECDBF19A2423008F44AE026
:100600008E010F5D1F4F842E912CA12CB12CA501C2
:1006100094010E94F905E62FB901CA0101501109A0
:10062000EA3014F4E05D01C0E95CD801EC93232BBF
:10063000242B252B61F7C8010E94CC02A1960FB68E
:10064000F894DEBF0FBECDBFDF91CF911F910F9108
:10065000BF90AF909F908F900895CF92DF92EF92CE
:10066000FF92CF93DF936B017C01E0916D01F091DC
:100670006E010190F081E02D6DE28DE691E009952B
:10068000EC0166277727CB016C197D098E099F093C
:100690004AE00E94EC028C0F9D1FDF91CF91FF90EA
:1006A000EF90DF90CF9008950E9421061F920F9245
:1006B0000FB60F9211242F933F934F935F936F9335
:1006C0007F938F939F93AF93BF93EF93FF938DE6A9
:1006D00091E00E943001FF91EF91BF91AF919F9106
:1006E0008F917F916F915F914F913F912F910F90DB
:1006F0000FBE0F901F9018951F920F920FB60F927A
:1007000011242F938F939F93EF93FF93E0917D019B
:10071000F0917E018081E0918301F091840182FD5E
:1007200012C09081809186018F5F8F732091870125
:10073000821751F0E0918601F0E0E359FE4F958F6A
:100740008093860101C08081FF91EF919F918F91ED
:100750002F910F900FBE0F901F9018951F920F9220
:100760000FB60F9211242F933F938F939F93AF93C4
:10077000BF938091610190916201A0916301B0915A
:1007800064013091600123E0230F2D3720F401969E
:10079000A11DB11D05C026E8230F0296A11DB11DA4
:1007A000209360018093610190936201A0936301A3
:1007B000B09364018091650190916601A0916701F9
:1007C000B09168010196A11DB11D809365019093C0
:1007D0006601A0936701B0936801BF91AF919F91AB
:1007E0008F913F912F910F900FBE0F901F901895F2
:1007F0001F920F920FB60F9211242F933F934F9396
:100800005F936F937F938F939F93AF93BF93EF9378
:10081000FF93E0910201F09103010995FF91EF919F
:10082000BF91AF919F918F917F916F915F914F9108
:100830003F912F910F900FBE0F901F9018951F9210
:100840000F920FB60F9211242F933F934F935F9304
:100850006F937F938F939F93AF93BF93EF93FF9388
:10086000E0910001F09101010995FF91EF91BF9195
:10087000AF919F918F917F916F915F914F913F9138
:100880002F910F900FBE0F901F901895789484B5FC
:10089000826084BD84B5816084BD85B5826085BD7C
:1008A00085B5816085BD80916E00816080936E000A
:1008B00010928100809181008260809381008091FC
:1008C00081008160809381008091800081608093AD
:1008D00080008091B10084608093B1008091B0006D
:1008E00081608093B00080917A00846080937A0068
:1008F00080917A00826080937A0080917A00816092
:1009000080937A0080917A00806880937A001092B8
:10091000C10087E00E94870089E00E94870088E08C
:100920000E9487008BE00E9487008AE00E94870077
:100930008CE00E948700E0917D01F0917E0182E0D1
:100940008083E0917901F0917A011082E0917B013E
:10095000F0917C0180E1808310928501E09181011A
:10096000F091820186E08083E0917F01F091800127
:10097000808180618083E0917F01F091800180819E
:1009800088608083E0917F01F091800180818068A0
:100990008083E0917F01F091800180818F7D808351
:1009A00086EA90E0909301018093000180916900B4
:1009B000836080936900E89A80EB90E09093030154
:1009C00080930201809169008C6080936900E99AAC
:1009D000C9EBD0E00EEB10E08DE191E00E94DE0269
:1009E00060916B0170916C01072E000C880B990BC4
:1009F00097FF03C00E942D0303C04AE00E94EC024F
:100A000010926C0110926B016091060170910701C8
:100A100089E00E94100260910401709105018AE052
:100A20000E94100261E088E00E94C40161E08CE055
:100A30000E94C40160E087E00E94C40160E08BE096
:100A40000E94C40120916B0130916C018091690179
:100A500090916A01821793075CF41093050100934B
:100A60000401D0930701C093060181E291E020C008
:100A70002091690130916A0180916B0190916C0124
:100A8000821793075CF41093070100930601D0933B
:100A90000501C09304018DE291E00AC0D0930701E3
:100AA000C0930601D0930501C093040188E391E04F
:100AB0000E94DE0280916B0190916C0144970CF4CE
:100AC00068C060E088E00E94C40160E08CE00E94A1
:100AD000C40160E089E00E94C40160E08AE00E94F5
:100AE000C40160E087E00E94C40160E08BE00E94E6
:100AF000C4010E94930210926C0110926B0183E476
:100B000091E00E94CC020E949302D0930701C0930F
:100B10000601D0930501C093040180916B0190916F
:100B20006C01833591059CF5609106017091070178
:100B300089E00E94100260910401709105018AE031
:100B40000E94100282E591E00E94CC0260910401B3
:100B500070910501072E000C880B990B97FF03C0BD
:100B60000E942D0303C04AE00E94EC0260E087E08F
:100B70000E94C40160E08CE00E94C40161E088E052
:100B80000E94C40161E08BE00E94C401C6CF0E94B4
:100B900093020E94BA0120CFEDE6F1E013821282A7
:100BA00088EE93E0A0E0B0E084839583A683B783CA
:100BB0008CE091E09183808385EC90E09587848739
:100BC00084EC90E09787868780EC90E0918B808B17
:100BD00081EC90E0938B828B82EC90E0958B848B00
:100BE00086EC90E0978B868B118E128E138E148E6E
:100BF0000895A1E21A2EAA1BBB1BFD010DC0AA1F5E
:100C0000BB1FEE1FFF1FA217B307E407F50720F075
:100C1000A21BB30BE40BF50B661F771F881F991FF0
:100C20001A9469F760957095809590959B01AC0139
:100C3000BD01CF010895EE0FFF1F0590F491E02D47
:100C4000099481E090E0F8940C942606F894FFCF84
:100C5000CB02CB02B900B900000000005101BA007C
:100C6000E90098011A01F8000C010D0A004C43201C
:100C7000005269676874205370656564004C65664E
:100C8000742053706565640053616D652053706511
:100C9000656400436F726E65722043616C6C6564BD
:100CA0002000616E616C6F67726967687420000074
:107800000C94343C0C94513C0C94513C0C94513CE1
:107810000C94513C0C94513C0C94513C0C94513CB4
:107820000C94513C0C94513C0C94513C0C94513CA4
:107830000C94513C0C94513C0C94513C0C94513C94
:107840000C94513C0C94513C0C94513C0C94513C84
:107850000C94513C0C94513C0C94513C0C94513C74
:107860000C94513C0C94513C11241FBECFEFD8E036
:10787000DEBFCDBF11E0A0E0B1E0ECE9FFE702C060
:1078800005900D92A230B107D9F712E0A2E0B1E065
:1078900001C01D92AD30B107E1F70E942D3D0C945F
:1078A000CC3F0C94003C982F959595959595959582
:1078B000905D8F708A307CF0282F295A8091C0000B
:1078C00085FFFCCF9093C6008091C00085FFFCCF60
:1078D0002093C6000895282F205DF0CF982F809127
:1078E000C00085FFFCCF9093C6000895EF92FF92F1
:1078F0000F931F93EE24FF2487018091C00087FD22
:1079000017C00894E11CF11C011D111D81E4E8164B
:1079100082E4F8068FE0080780E0180770F3E09132
:107920000401F091050109958091C00087FFE9CF1E
:107930008091C6001F910F91FF90EF9008950E94D3
:10794000763C982F8091C00085FFFCCF9093C600B5
:1079500091362CF490330CF09053892F089597555D
:10796000892F08951F930E949F3C182F0E949F3CCF
:107970001295107F810F1F9108951F93182F882350
:1079800021F00E94763C1150E1F71F9108951F935A
:10799000182F0E94763C803249F0809103018F5F5E
:1079A000809303018530C1F01F9108958091C0003C
:1079B00085FFFCCF84E18093C6008091C00085FFE5
:1079C000FCCF1093C6008091C00085FFFCCF80E102
:1079D0008093C6001F910895E0910401F091050184
:1079E00009951F9108950E94763C803241F0809164
:1079F00003018F5F80930301853081F008958091AA
:107A0000C00085FFFCCF84E18093C6008091C00058
:107A100085FFFCCF80E18093C6000895E0910401CA
:107A2000F09105010995089540E951E08823A1F0FE
:107A30002D9A28EE33E0FA013197F1F721503040CA
:107A4000D1F72D9828EE33E0FA013197F1F7215064
:107A50003040D1F7815061F708953F924F925F9285
:107A60006F927F928F929F92AF92BF92CF92DF924E
:107A7000EF92FF920F931F93CF93DF93000080E16B
:107A80008093C4001092C50088E18093C10086E015
:107A90008093C2005098589A259A81E00E94143D24
:107AA00024E1F22E9EE1E92E85E9D82E0FE0C02ECA
:107AB00010E1B12EAA24A394B1E49B2EA6E58A2E50
:107AC000F2E57F2EE0E26E2E79E4572E63E5462E36
:107AD00050E5352E0E94763C8033B1F18133B9F107
:107AE000803409F46FC0813409F476C0823409F41B
:107AF00085C0853409F488C0803531F1823521F1A3
:107B0000813511F1853509F485C0863509F48DC0BC
:107B1000843609F496C0843709F403C1853709F423
:107B200072C1863709F466C0809103018F5F80932C
:107B30000301853079F6E0910401F0910501099582
:107B40000E94763C803351F60E94F33CC3CF0E94E2
:107B5000763C803249F78091C00085FFFCCFF092DF
:107B6000C6008091C00085FFFCCF9092C600809136
:107B7000C00085FFFCCF8092C6008091C00085FFC9
:107B8000FCCF7092C6008091C00085FFFCCF609250
:107B9000C6008091C00085FFFCCF5092C600809146
:107BA000C00085FFFCCF4092C6008091C00085FFD9
:107BB000FCCF3092C6008091C00085FFFCCFB09210
:107BC000C60088CF0E94763C863808F4BDCF0E945C
:107BD000763C0E94F33C7ECF0E94763C803809F4CC
:107BE0009CC0813809F40BC1823809F43CC1883942
:107BF00009F48FC080E00E94C73C6CCF84E10E94F2
:107C0000BD3C0E94F33C66CF85E00E94BD3C0E94D3
:107C1000F33C60CF0E94763C809306010E94763C44
:107C2000809307010E94F33C55CF0E94763C80333D
:107C300009F41DC183E00E94BD3C80E00E94C73C66
:107C400049CF0E94763C809309020E94763C809343
:107C5000080280910C028E7F80930C020E94763C79
:107C6000853409F415C18091080290910902892B8D
:107C700089F000E010E00E94763CF801E85FFE4FDA
:107C800080830F5F1F4F80910802909109020817AF
:107C9000190788F30E94763C803209F045CF809125
:107CA0000C0280FF01C16091060170910701660F0F
:107CB000771F7093070160930601A0910802B091AD
:107CC00009021097C9F0E8E0F1E09B01AD014E0F09
:107CD0005F1FF999FECF32BD21BD819180BDFA9A17
:107CE000F99A2F5F3F4FE417F50799F76A0F7B1F4B
:107CF00070930701609306018091C00085FFFCCF5F
:107D0000F092C6008091C00085FFFCCFB092C60003
:107D1000E1CE83E00E94C73CDDCE82E00E94C73CFA
:107D2000D9CE0E94763C809309020E94763C8093D3
:107D300008028091060190910701880F991F909386
:107D40000701809306010E94763C853409F4A6C0A1
:107D500080910C028E7F80930C020E94763C8032D0
:107D600009F0B8CE8091C00085FFFCCFF092C6002C
:107D7000609108027091090261157105B9F140E046
:107D800050E080910C02A82FA170B82FB27011C0E2
:107D9000BB2309F45CC0E0910601F0910701319624
:107DA000F0930701E09306014F5F5F4F46175707B7
:107DB000E8F4AA2369F3F999FECF209106013091E6
:107DC000070132BD21BDF89A90B58091C00085FFB2
:107DD000FCCF9093C6002F5F3F4F30930701209355
:107DE00006014F5F5F4F4617570718F38091C00099
:107DF00085FDE5CE8091C00085FFF8CFE0CE81E023
:107E00000E94C73C67CE0E94763C803209F08CCE3F
:107E10008091C00085FFFCCFF092C6008091C00029
:107E200085FFFCCFE092C6008091C00085FFFCCFAB
:107E3000D092C6008091C00085FFFCCFC092C600E2
:107E40008091C00085FFFCCFB092C60043CEE09188
:107E50000601F091070194918091C00085FFFCCF4D
:107E60009093C6009CCF80E10E94C73C33CE0E9415
:107E7000763C0E94763C182F0E94763C112309F430
:107E800083C0113009F484C08FE00E94C73C22CE29
:107E900080910C02816080930C02E5CE80910C02EF
:107EA000816080930C0259CF809107018823880F4D
:107EB000880B8A2180930B02809106019091070123
:107EC000880F991F90930701809306018091080203
:107ED00080FF09C080910802909109020196909359
:107EE000090280930802F894F999FECF1127E091D6
:107EF0000601F0910701C8E0D1E08091080290915D
:107F00000902103091F40091570001700130D9F34B
:107F100003E000935700E89500915700017001308D
:107F2000D9F301E100935700E89509901990009169
:107F3000570001700130D9F301E000935700E89534
:107F40001395103498F011270091570001700130FB
:107F5000D9F305E000935700E895009157000170B0
:107F60000130D9F301E100935700E895329602976A
:107F700009F0C7CF103011F00296E5CF112480919F
:107F8000C00085FFB9CEBCCE8EE10E94C73CA2CD19
:0C7F900085E90E94C73C9ECDF894FFCF0D
:027F9C00800063
:040000030000780081
:00000001FF
